:020000040000fa
:080000000001040000000000f3
:020000040000fa
:0400080024020000ce
:020000040000fa
:04000c0024020000ca
:020000040000fa
:0400100024020000c6
:020000040000fa
:0400140024020000c2
:020000040000fa
:0400180024020000be
:020000040000fa
:04001c0024020000ba
:020000040000fa
:0400200024020000b6
:020000040000fa
:0400240024020000b2
:020000040000fa
:0400280024020000ae
:020000040000fa
:04002c0024020000aa
:020000040000fa
:0400300024020000a6
:020000040000fa
:0400340004020000c2
:020000040000fa
:04003800240200009e
:020000040000fa
:04003c00240200009a
:020000040000fa
:040040002402000096
:020000040000fa
:040044002402000092
:020000040000fa
:04004800240200008e
:020000040000fa
:04004c00240200008a
:020000040000fa
:040050002402000086
:020000040000fa
:040054002402000082
:020000040000fa
:04005800240200007e
:020000040000fa
:04005c00240200007a
:020000040000fa
:040060002402000076
:020000040000fa
:040064002402000072
:020000040000fa
:04006800240200006e
:020000040000fa
:04006c00240200006a
:020000040000fa
:040070002402000066
:020000040000fa
:040074002402000062
:020000040000fa
:04007800240200005e
:020000040000fa
:04007c00240200005a
:020000040000fa
:040080002402000056
:020000040000fa
:040084002402000052
:020000040000fa
:04008800240200004e
:020000040000fa
:04008c00240200004a
:020000040000fa
:040090002402000046
:020000040000fa
:040094002402000042
:020000040000fa
:04009800240200003e
:020000040000fa
:04009c00240200003a
:020000040000fa
:0400a0002402000036
:020000040000fa
:0400a4002402000032
:020000040000fa
:0400a800240200002e
:020000040000fa
:0400ac00240200002a
:020000040000fa
:0400b0002402000026
:020000040000fa
:0400b4002402000022
:020000040000fa
:0400b800240200001e
:020000040000fa
:0400bc00240200001a
:020000040000fa
:0400c0002402000016
:020000040000fa
:0400c4002402000012
:020000040000fa
:0400c800240200000e
:020000040000fa
:0400cc00240200000a
:020000040000fa
:0400d0002402000006
:020000040000fa
:0400d4002402000002
:020000040000fa
:0400d80024020000fe
:020000040000fa
:0400dc0024020000fa
:020000040000fa
:0400e00024020000f6
:020000040000fa
:0400e40024020000f2
:020000040000fa
:0400e80024020000ee
:020000040000fa
:0400ec0024020000ea
:020000040000fa
:0400f00024020000e6
:020000040000fa
:0400f40024020000e2
:020000040000fa
:0400f80024020000de
:020000040000fa
:0400fc0024020000da
:020000040000fa
:0401000024020000d5
:020000040000fa
:0401040024020000d1
:020000040000fa
:0401080024020000cd
:020000040000fa
:04010c0024020000c9
:020000040000fa
:0401100024020000c5
:020000040000fa
:0401140024020000c1
:020000040000fa
:0401180024020000bd
:020000040000fa
:04011c0024020000b9
:020000040000fa
:0401200024020000b5
:020000040000fa
:0401240024020000b1
:020000040000fa
:0401280024020000ad
:020000040000fa
:04012c0024020000a9
:020000040000fa
:0401300024020000a5
:020000040000fa
:0401340024020000a1
:020000040000fa
:04013800240200009d
:020000040000fa
:04013c002402000099
:020000040000fa
:040140002402000095
:020000040000fa
:040144002402000091
:020000040000fa
:04014800240200008d
:020000040000fa
:04014c002402000089
:020000040000fa
:040150002402000085
:020000040000fa
:040154002402000081
:020000040000fa
:04015800240200007d
:020000040000fa
:04015c002402000079
:020000040000fa
:040160002402000075
:020000040000fa
:040164002402000071
:020000040000fa
:04016800240200006d
:020000040000fa
:04016c002402000069
:020000040000fa
:040170002402000065
:020000040000fa
:040174002402000061
:020000040000fa
:04017800240200005d
:020000040000fa
:04017c002402000059
:020000040000fa
:040180002402000055
:020000040000fa
:040184002402000051
:020000040000fa
:04018800240200004d
:020000040000fa
:04018c002402000049
:020000040000fa
:040190002402000045
:020000040000fa
:040194002402000041
:020000040000fa
:04019800240200003d
:020000040000fa
:04019c002402000039
:020000040000fa
:0401a0002402000035
:020000040000fa
:0401a4002402000031
:020000040000fa
:0401a800240200002d
:020000040000fa
:0401ac002402000029
:020000040000fa
:0401b0002402000025
:020000040000fa
:0401b4002402000021
:020000040000fa
:0401b800240200001d
:020000040000fa
:0401bc002402000019
:020000040000fa
:0401c0002402000015
:020000040000fa
:0401c4002402000011
:020000040000fa
:0401c800240200000d
:020000040000fa
:0401cc002402000009
:020000040000fa
:0401d0002402000005
:020000040000fa
:0401d4002402000001
:020000040000fa
:0401d80024020000fd
:020000040000fa
:0401dc0024020000f9
:020000040000fa
:0401e00024020000f5
:020000040000fa
:0401e40024020000f1
:020000040000fa
:0401e80024020000ed
:020000040000fa
:0401ec0024020000e9
:020000040000fa
:0401f00024020000e5
:020000040000fa
:0401f40024020000e1
:020000040000fa
:0401f80024020000dd
:020000040000fa
:0401fc0024020000d9
:020000040000fa
:100200004f8020000e7f24000e01880000000000b7
:10021000000020000000e000020032000001200089
:100220002002880014000700890007000000e00099
:1002300003003a0020b62000010020000200370031
:100240000000200001002000810f7000010032003a
:1002500014000700000020000000e000020032004f
:1002600000000200000000003e0902000000000043
:100270000040da000000fe004440a90020002000f9
:100280000000e00003003200100020009001880010
:100290004440a800000006008a1f78008b1f7800e9
:1002a00000000600a1028800800478000000eb0036
:1002b0001f003700e284440054a0b4009905ba003e
:1002c000e284440054a0b4009906ba00e2844400d9
:1002d00054a0b4000006eb00476fde00fd07b2003b
:1002e000ae018800636ce10003003a00eaff0700fa
:1002f0000000eb000e003700606ce10008003a00df
:10030000004deb000a05e800020039003420ec0043
:100310000af0a0008b05e900f9ff3e000400370059
:100320006168e100010032000086eb000b0007006d
:1003300019c7ba001905ba000e04e00003003a001c
:100340000a00e000dbff3a0000000600fe07b200f2
:10035000ae0288008a047800f5ff37000cd0a300b5
:10036000e20f4d001c00390089027800354dba00bb
:100370000a05e800020039003420ec000af0a00071
:100380008b05e9000f003200254dba000a05e80090
:10039000020039003420ec000af0a0008b05e900cf
:1003a000080032000c00e0000600320015cdba0053
:1003b0000a05e800020039003420ec000af0a00031
:1003c0008b05e9008984e80054a0b4000b00e0002c
:1003d000e2ff3a00000006009902ba00055d7800cd
:1003e0008b05e900f7ff3200c82ade00055d7800c2
:1003f0008b05e900f3ff32000c00e000f1ff320052
:1004000019ddba00eeff3700801f78003200f800d7
:100410003400f80010002000a00188001000200027
:10042000900188000000fa008860a90010002000f8
:10043000004088000080fa003400f9003200f90022
:100440004f007800004006000040da000000fe0087
:100450000000050007f82700078361000638e10067
:1004600004003a00f70720008783610087037100ca
:1004700001003a0003f0a200889fbe008a9fbe00e0
:100480008c9fbe00470ade000480a100c71ade0070
:100490000580a100070028000785600087856100ae
:1004a000f70f20000720e1009e0032000728e1003e
:1004b0009c003200010678000400e000b400320025
:1004c000f7072000878060000170a0000500e000b1
:1004d000c0003200f7072000878161000370a00090
:1004e000050652000f003a000b50e1000b003200ed
:1004f0000308e10002003a000200e1007e00320041
:100500000204500083845800040031000001fd0003
:100510008101fd008402fd008a05fd006044b800f1
:10052000210037000520e10005003d000001fd002d
:100530008101fd008402fd008a05fd0005065200d0
:100540007a60e100050035000170a1004722dd005e
:10055000848070008a807000630037006044b800b7
:10056000ef02660007ff2f00070666000500e000a7
:1005700006003400f08312008714dd000511de0050
:10058000071bdd00060171008519de007060e100c7
:100590000500350009047800820478000301780022
:1005a0008001eb00700656000b50e10003003a009a
:1005b00002004000838048000400370060041400fb
:1005c000e0841c0002005800838058000188a300ca
:1005d000060032008100d1000080d3008984d3005e
:1005e0000884d3000402e800270037000178a30044
:1005f00025003a000100e000030032008186cf00b0
:10060000698656000a0037008c0020000000e000d8
:1006100004003a0009007800880478000004eb0028
:10062000700252008086cf000d0646000c06e900dd
:100630007060e10006003500800078000900780055
:10064000880478000004eb00700656007002520027
:100650000c00e0000c0034008c08dd00f0031600f4
:100660000703de00868070000c00dd00074bde0013
:10067000060070008c4cdd000743de0086847400a9
:100680000c44dd000c0252006120e1002000350026
:10069000610160000700280087816400f7ff2700e0
:1006a00087836400070374000300e0000600320043
:1006b00082037300040032000000e800e08048007c
:1006c0000188a3000e003a00f70f20000720e10088
:1006d0004a003d000170a1004722dd008100720048
:1006e0008a8070000000be004f06be004f05be00ad
:1006f0004f04be00000006006000b800faff37009b
:100700008100d1000080d3000402e800eeff370032
:100710000401780089017400a10107008a8070003b
:10072000f1ff3700f7010700070278000001fd0024
:100730008101fd00f3010700870278008503720044
:100740000778a300040032000001fd008101fd00d4
:1007500006020700e4ff3700850362000768a30074
:10076000080032000b50e10003003200f0ff2f00c0
:10077000f1ff2700dcff37000001fd008101fd00d3
:10078000d9ff37000468a300d7ff3200faff370013
:10079000f8ff2700888360000b003a000000e000ab
:1007a00009003a0083036400828373000200320070
:1007b0000200be00ccff37000b50e100ceff3a0034
:1007c0000200be00c8ff3700140020008100640052
:1007d0003eff3700f8ff27008883610004003a00dd
:1007e0000200e00002003a008c007800beff3700f3
:1007f000150020008301640039ff370001f827004d
:100800000000200081007500b7ff3700889fbe0000
:100810008a9fbe008c9fbe001b0020000202be000b
:100820000586680006002800060666004709de0007
:10083000f20fb200820032000243e8008000320072
:10084000c729de00f30fb2007d0032000343e80049
:100850007b003200f107b2000170a000f507b20082
:100860000570a000c708dd004903de008680700027
:100870004700dd00c72add004923de0086827200c2
:100880004722dd0003055100040350008583580012
:100890000300310000004000818048000a05e900a3
:1008a0008c1f78008a9fbe0004005000858058008d
:1008b0000402420085824a00000040008180480016
:1008c0000005eb000004be006033b8000406be0063
:1008d0000d48e10056003100110009004dccd80050
:1008e0000c01b8000d02b8008481410060824a000a
:1008f0008283530003045c0084845c0060055d0017
:100900000a00e00025003a00800578000d40e10073
:1009100049003100880078000700780011000900c4
:100920004d88d8000c01b8000d02b8008481410048
:1009300060824a006003110083835b0004045c0052
:10094000e0845c000900e00021003a004f01be0095
:100950000300e0002b003200e30160000706730093
:100960008c81710001003200640070004200de00e2
:100970004e5edd000c007000c258de0001e0a000f9
:1009800083010700cf017800818071004f06be000f
:100990004f05be004f04be00000006008c834300dc
:1009a0000d044c00e0844c0060054d000000e9009f
:1009b0000a00e000d4ff32008c8343000d044c0099
:1009c000e0844c0060054d000000e900ceff3700d8
:1009d0000c0343008d834b0060044c00e0844c000a
:1009e0000000e9000900e000d8ff32000c034300da
:1009f0008d834b0060044c00e0844c000000e90053
:100a0000d2ff37004200de004e5edd000c007000b9
:100a1000c258de0001e0a000cf0178000300e00032
:100a2000daff320060001000e0801800d7ff3700c6
:100a3000f0ff2f00aaff3700f0ff2f00b9ff3700ab
:100a40000404be002f010700870678000004fd00a3
:100a50008104fd002b010700078366000678a300d0
:100a6000030032000960a7000800be002c00370018
:100a70000d78a300020032000800be0028003700f5
:100a80000778a30026003a0001f0a10009f0a100b8
:100a90000668a30003003200f1ff2700f0ff2f00db
:100aa000baff37000d68a300030032000800be0043
:100ab0008c807000b5ff37000768a30007003a007c
:100ac0000648a30003003200f1ff2700f0ff2f00cb
:100ad000aeff37000d48a300030032006000b800ed
:100ae0008c807000a9ff37000748a3000400320083
:100af00001f82700000020008c807000a3ff370061
:100b0000760107000004fd008104fd000205780065
:100b1000720107000802be008a01780059ff370001
:100b20000160a000120220001240880097ff3700e9
:100b30000100e000120032000500e0001000320069
:100b4000889fbe008a9fbe008c9fbe000006eb00ff
:100b500001f8a3000300320060001000e0801800dc
:100b60000cf0a00005f8a3000300320060021200a0
:100b7000e0821a000cf0a2008005eb0041ff370074
:100b80006000b80002000500038368000700280029
:100b900007036300470ade000480a100c71ade00d5
:100ba0000580a100f70f20000720e100420032007d
:100bb0000728e10040003200889fbe008a9fbe00e7
:100bc0008c1f7800f107b200f307b2000400e000c8
:100bd000640032000170a0000500e00068003200ef
:100be0000370a00085054200eb07b1000204b800c5
:100bf0000302b8008484440060854a00020ab800f9
:100c0000848444000a854a00030ab80004054500ac
:100c1000040033000804d0008984d2000a85d20081
:100c20008b05e9006158e1003d003500021020000d
:100c3000090161000308200089816100f707200095
:100c40008783640008867300c84cde00c853dd004b
:100c5000878474004855de000300e000060032007f
:100c600082037600040032008904e80060054d002c
:100c70000a88a3000c003a00f70f20000758e10093
:100c800044003d000a70a100c75ddd000a857500c3
:100c90008a007300090078004f0678004f05be00f7
:100ca0004f04be00000006000a05d1008984d3006d
:100cb0008b05e800f0ff3700881f780006047800f5
:100cc00090000700070278000001fd008101fd008f
:100cd0008c00070087027800850372000778a30064
:100ce000050032000001fd008101fd009f000700aa
:100cf0004f04780000000600850372000748a30037
:100d000003003200f0ff2f00f1ff2700f8ff37004b
:100d10000000200001f8270088807000f4ff3700f1
:100d2000880178004848dd00808171004848de0075
:100d3000c850dd0001007000c850de0006047800d5
:100d40000b0178001600070088807000d2ff370082
:100d50000500e00005003200170020003a000700ff
:100d60009dff370081037000f9ff3a00860078008c
:100d70004f0678004f05be004f04be00000005007e
:100d800083037100f9ff3200270020002e000700c6
:100d900094ff370001f8270086807000f4ff3700c9
:100da0000100e00026003200610111007810e1002e
:100db00023003c006022b8007010e1000400350000
:100dc00080027800010078008000eb007001510083
:100dd0000200e0000900340070031100062add0063
:100de000822ade008603dd00878272000200de00b8
:100df000860bdd00070070008208de008481710030
:100e0000f4ff27000482620084817100040028003e
:100e1000848262006102600005f0a6000000060006
:100e200004827100070032000000e800e080480002
:100e3000000006000002be006000b800efff3700af
:100e40006000b80000000600889fbe000004eb00b0
:100e50006138e10016003a000100e00008003a00a5
:100e6000c800de004800dd00880020000100e0002e
:100e700003003a00c800de004800dd0068044400ba
:100e80008184cf00e9845400060034008908dd0025
:100e9000f08314008703de00878070000900dd0006
:100ea00009044400610214004f04be000000060063
:100eb0000300e00008003a00c811de004811dd0020
:100ec000880020000300e00003003a00c811de00a3
:100ed0004811dd00680444008384cf00e984540095
:100ee000060034008919dd00f08314008713de004a
:100ef000878171000911dd0009044400e10214003a
:100f0000e9ff37002700200001f0a70017002000ac
:100f1000470bde00f60fb200040032000643e80083
:100f20000a0032004702b300000006000103780007
:100f3000f607b2000603700002003a000703b30090
:100f4000000006008702b3000000060001037800dd
:100f5000f607b20006037000020032000770a0001e
:100f6000000006000760a000000006000478a3004f
:100f7000040032000578a300030032000168a300da
:100f800001003a000200be000160a000000006005f
:100f900081017000270032008002eb0001f8a300fd
:100fa0000300320060001000e080180015002000ef
:100fb000f40720000202420020003400f703200062
:100fc000870360000604200000036300020820007d
:100fd000000161004700de00c909dd0000807100ea
:100fe000c708de000600e000080032008703710039
:100ff000060032001000b0000180b0000188a3009c
:1010000002003200c108de000402e800f107b2006d
:10101000f30f20000320e10003003d004722dd0024
:10102000810072002900370001f827000000eb0062
:10103000260037006000b8000000060068021200b9
:101040007f20e100020034006000b8001f0037007c
:101050006011b8007020e1000400350080017800c4
:10106000010078008000eb00700252000400e000f4
:1010700009003400f00312000719dd008419de00b6
:101080000703dd00868171000400de00070bdd0030
:10109000060070008408de00f7ff270083836300ea
:1010a0008703710006002800030363000700320075
:1010b0000700e00003003a00610160000281730054
:1010c000020032001000b0000180b0000500a60050
:1010d0000000060001f0a000000006004f0ade003c
:1010e0004709de00f107b200f20fb2000b00320038
:1010f000f207b1000170a000c708dd00c901de00e1
:10110000838070004700dd000400a6000000060098
:1011100060001000e080180000000600810f7000e1
:1011200001003a00000006008182cf000500e000c7
:1011300010003e008082cf00ee8242007028e10065
:101140000400390007003e00800078000000eb003a
:101150000e003700708312008600de000500dd00ff
:101160000a003700708352008600dd000000eb00ab
:1011700006003700e28252008508dd00708312000d
:101180000603de00868070000500dd007507b000f4
:101190000501ea000400a60000000600600010003f
:0811a000e080180000000600c9
:020000040000fa
:1011a8000200fa000040eb00004f78000040fe000b
:1011b80010003700d03380004600de006140600038
:1011c8000004a200614060000080fb006100600034
:1011d8004600dd00d13380000160a10001007000ed
:1011e800d033880000402d000103200025010700ae
:1011f8001e4fe8001e407800e44f5000edff360017
:101208000040eb00004f780010003700d03380001a
:101218004600de00614060000004a20061406000fa
:101228000080fb00610060004600dd00d1338000d3
:101238000160a10001007000d03388000020210067
:10124800a10720000f0107001e4fe8001e4078008c
:10125800e44f5000edff36000080fa000000060061
:101268000000fa0076c6a9007ac6a8000080fa0035
:10127800000006000200fa00b0cbb300004f78006f
:10128800f7ff0700e60007004a000700850007008f
:10129800090007001e4078007300070010479800f7
:1012a800004080000000e000010032000028ef004c
:1012b8000060fe00f7ff37000000fa009be4a90079
:1012c8009b44a90020012000c02488007f26a90093
:1012d8007706a8007726a8007d06a8007d26a80026
:1012e8009be4a8000080fa00000006000000fa0055
:1012f8009a04a80000000000d0248000610060006b
:101308000000e000fcff3a000080fa000000060040
:101318000000fa009a44a80000000000d0248000d1
:10132800640060000000e000fcff3a000080fa0062
:10133800000006000200fa00004f78001e80fb0043
:10134800b024880000202e0041002000cd000700b6
:10135800f124800000002800008060000000e00008
:1013680002003a000040eb000100370000c0eb002b
:101378000080fa00000006000000fa009a64a80045
:1013880000202e0041002000be000700f02480004d
:10139800620060000000e00003003200a02480002a
:1013a800004078000100370000c0eb000080fa0020
:1013b800000006000000fa00f5e3a9008920a90052
:1013c8009920a900f463a900f583a900f543a900b1
:1013d800f523a900f4c3a900f503a800f4a3a90004
:1013e800f4e3a800f623ef000024ef007f86a900ad
:1013f8007fa6a9007fc6a9007766a8007786a900fe
:1014080077a6a80077c6a800c13d800000fc2f0081
:1014180000806000b000b300c03d8800013f80003c
:1014280000f82f00008060007000b300003f8800c3
:10143800c13d8000f00f2c008080600000d02000ab
:1014480001007000c03d8800d13d800000fc2f00e5
:1014580000806000e000b300d03d8800f5e3a800fc
:101468000080fa00000006000400fa0020479800f7
:101478002e4090000080fb00002088000000000043
:10148800e01f8000610060000000e000fcff320007
:1014980000208000004f78001e4078000080fa008d
:1014a800000006000000fa007e66a8000007200081
:1014b800303a880050002000603a88005027ef003a
:1014c80000f02000503a880040002000403a880090
:1014d80047e7a8000080fa00000006000200fa00b2
:1014e80089a0a9004647a800000000004104800028
:1014f80000002200008060000000e000fbff3200d6
:101508004647a90090388000004f780040712000bd
:1015180010007800004078001e4f40001e80fb003d
:101528000000d100004f78001e4078000080fa00cb
:10153800000006000c00fa004007980051079800c8
:1015480002002c00f34724004e009000de009000bb
:10155800acfc070002002c001354240088fd07008f
:10156800008fbe0032332900833824001e00be00dd
:10157800b6fb070020079800310798002e0090005e
:10158800be0090000080fa00000006000000fa008b
:1015980056ff070020c7b30066ff070000c8b30066
:1015a80064ff070070c0b30062ff070058ff070020
:1015b8004eff070020c7b3005eff0700f0c8b30066
:1015c8005cff0700a0c0b3005aff070050ff0700e8
:1015d8000080fa00000006000200fa000040eb005c
:1015e800004f780041ff070020c7b30051ff0700f4
:1015f800c0c9b3004fff070045ff07003bff0700c6
:1016080030c7b3004bff07005bff0700004f7800af
:101618003fff07001e4078000080fa000000060027
:101628000000fa009021ef0080072000900c88004d
:1016380095e1a9009421a800a10c8000f0cf2f000b
:10164800008060000090a000a00c8800a10c800021
:101658000003200001007000a00c88008860a90029
:101668009860a80041058000f0ff28000080600015
:1016780000e0a0004005880095e1a8000080fa007d
:041688000000060058
:020000040000fa
:10168c00f03fb1000180b10006003500ee03090007
:10169c0000000000403fb1000180b100fbff3d00a5
:1016ac001000b000203fb00002003500008009009f
:0816bc00000000000000060020
:020000040000fa
:1016c4000008000002000000800000000208000082
:0c16d40002000000800000000000000088
:020000040000fa
:020000040005f5
:045e0000ffffff00a1
:020000040000fa
:020000040005f5
:045e2000ffffff0081
:020000040000fa
:020000040005f5
:045e3000fbffff0075
:020000040000fa
:020000040005f5
:045e3800baffff00ae
:020000040000fa
:020000040005f5
:045e4000ffffff0061
:020000040000fa
:020000040005f5
:045e4800ffffff0059
:020000040000fa
:020000040005f5
:045e5000dfffff0071
:020000040000fa
:020000040005f5
:045e5800ffffff0049
:00000001FF
